{
  "_format": "hh-sol-artifact-1",
  "contractName": "SimpleBatchTransfer",
  "sourceName": "contracts/SimpleBatchTransfer.sol",
  "abi": [
    {
      "inputs": [
        {
          "internalType": "address",
          "name": "_messageBus",
          "type": "address"
        }
      ],
      "stateMutability": "nonpayable",
      "type": "constructor"
    },
    {
      "inputs": [
        {
          "internalType": "address",
          "name": "_receiver",
          "type": "address"
        },
        {
          "internalType": "address",
          "name": "_token",
          "type": "address"
        },
        {
          "internalType": "uint256",
          "name": "_amount",
          "type": "uint256"
        },
        {
          "internalType": "uint64",
          "name": "_dstChainId",
          "type": "uint64"
        },
        {
          "internalType": "uint32",
          "name": "_maxSlippage",
          "type": "uint32"
        },
        {
          "internalType": "enum MessageSenderLib.BridgeType",
          "name": "_bridgeType",
          "type": "uint8"
        },
        {
          "internalType": "address[]",
          "name": "_accounts",
          "type": "address[]"
        },
        {
          "internalType": "uint256[]",
          "name": "_amounts",
          "type": "uint256[]"
        }
      ],
      "name": "batchTransfer",
      "outputs": [],
      "stateMutability": "payable",
      "type": "function"
    },
    {
      "inputs": [
        {
          "internalType": "address",
          "name": "_sender",
          "type": "address"
        },
        {
          "internalType": "address",
          "name": "_token",
          "type": "address"
        },
        {
          "internalType": "uint256",
          "name": "_amount",
          "type": "uint256"
        },
        {
          "internalType": "uint64",
          "name": "_srcChainId",
          "type": "uint64"
        },
        {
          "internalType": "bytes",
          "name": "_message",
          "type": "bytes"
        }
      ],
      "name": "executeMessageWithTransfer",
      "outputs": [
        {
          "internalType": "bool",
          "name": "",
          "type": "bool"
        }
      ],
      "stateMutability": "nonpayable",
      "type": "function"
    }
  ],
  "bytecode": "0x60806040523480156200001157600080fd5b506040516200239b3803806200239b8339818101604052810190620000379190620000e9565b80600060086101000a81548173ffffffffffffffffffffffffffffffffffffffff021916908373ffffffffffffffffffffffffffffffffffffffff160217905550506200011b565b600080fd5b600073ffffffffffffffffffffffffffffffffffffffff82169050919050565b6000620000b18262000084565b9050919050565b620000c381620000a4565b8114620000cf57600080fd5b50565b600081519050620000e381620000b8565b92915050565b6000602082840312156200010257620001016200007f565b5b60006200011284828501620000d2565b91505092915050565b612270806200012b6000396000f3fe6080604052600436106100295760003560e01c806364d39f421461002e578063ce35dd9a1461004a575b600080fd5b61004860048036038101906100439190611074565b610087565b005b34801561005657600080fd5b50610071600480360381019061006c91906112ac565b61020f565b60405161007e919061135e565b60405180910390f35b60016000808282829054906101000a900467ffffffffffffffff166100ac91906113a8565b92506101000a81548167ffffffffffffffff021916908367ffffffffffffffff1602179055506100ff33308a8c73ffffffffffffffffffffffffffffffffffffffff16610351909392919063ffffffff16565b60006040518060400160405280868680806020026020016040519081016040528093929190818152602001838360200280828437600081840152601f19601f820116905080830192505050505050508152602001848480806020026020016040519081016040528093929190818152602001838360200280828437600081840152601f19601f820116905080830192505050505050508152506040516020016101a891906115a6565b60405160208183030381529060405290506102018b8b8b8b60008054906101000a900467ffffffffffffffff168c878d600060089054906101000a900473ffffffffffffffffffffffffffffffffffffffff16346103da565b505050505050505050505050565b60008060089054906101000a900473ffffffffffffffffffffffffffffffffffffffff1673ffffffffffffffffffffffffffffffffffffffff163373ffffffffffffffffffffffffffffffffffffffff16146102a0576040517f08c379a000000000000000000000000000000000000000000000000000000000815260040161029790611625565b60405180910390fd5b6000828060200190518101906102b69190611887565b905060005b8160000151518110156103425761032f826000015182815181106102e2576102e16118d0565b5b602002602001015183602001518381518110610301576103006118d0565b5b60200260200101518973ffffffffffffffffffffffffffffffffffffffff166104f19092919063ffffffff16565b808061033a906118ff565b9150506102bb565b50600191505095945050505050565b6103d4846323b872dd60e01b85858560405160240161037293929190611966565b604051602081830303815290604052907bffffffffffffffffffffffffffffffffffffffffffffffffffffffff19166020820180517bffffffffffffffffffffffffffffffffffffffffffffffffffffffff8381831617835250505050610577565b50505050565b6000600160038111156103f0576103ef61199d565b5b8460038111156104035761040261199d565b5b14156104215761041a8b8b8b8b8b8b8b8a8a61063e565b90506104e3565b600260038111156104355761043461199d565b5b8460038111156104485761044761199d565b5b14156104655761045e8b8b8b8b8b8a898961081e565b90506104e3565b6003808111156104785761047761199d565b5b84600381111561048b5761048a61199d565b5b14156104a8576104a18b8b8b8b8b8a89896109fb565b90506104e3565b6040517f08c379a00000000000000000000000000000000000000000000000000000000081526004016104da90611a18565b60405180910390fd5b9a9950505050505050505050565b6105728363a9059cbb60e01b8484604051602401610510929190611a38565b604051602081830303815290604052907bffffffffffffffffffffffffffffffffffffffffffffffffffffffff19166020820180517bffffffffffffffffffffffffffffffffffffffffffffffffffffffff8381831617835250505050610577565b505050565b60006105d9826040518060400160405280602081526020017f5361666545524332303a206c6f772d6c6576656c2063616c6c206661696c65648152508573ffffffffffffffffffffffffffffffffffffffff16610ba99092919063ffffffff16565b905060008151111561063957808060200190518101906105f99190611a8d565b610638576040517f08c379a000000000000000000000000000000000000000000000000000000000815260040161062f90611b2c565b60405180910390fd5b5b505050565b6000808373ffffffffffffffffffffffffffffffffffffffff166382980dc46040518163ffffffff1660e01b815260040160206040518083038186803b15801561068757600080fd5b505afa15801561069b573d6000803e3d6000fd5b505050506040513d601f19601f820116820180604052508101906106bf9190611b4c565b90506106ec818a8c73ffffffffffffffffffffffffffffffffffffffff16610bc19092919063ffffffff16565b8073ffffffffffffffffffffffffffffffffffffffff1663a5977fbb8c8c8c8c8c8c6040518763ffffffff1660e01b815260040161072f96959493929190611b97565b600060405180830381600087803b15801561074957600080fd5b505af115801561075d573d6000803e3d6000fd5b505050506000308c8c8c8c8c466040516020016107809796959493929190611c97565b6040516020818303038152906040528051906020012090508473ffffffffffffffffffffffffffffffffffffffff16634289fbb3858e8c86868c6040518763ffffffff1660e01b81526004016107da959493929190611df4565b6000604051808303818588803b1580156107f357600080fd5b505af1158015610807573d6000803e3d6000fd5b505050505080925050509998505050505050505050565b6000808373ffffffffffffffffffffffffffffffffffffffff1663d8257d176040518163ffffffff1660e01b815260040160206040518083038186803b15801561086757600080fd5b505afa15801561087b573d6000803e3d6000fd5b505050506040513d601f19601f8201168201806040525081019061089f9190611b4c565b90506108cc81898b73ffffffffffffffffffffffffffffffffffffffff16610bc19092919063ffffffff16565b8073ffffffffffffffffffffffffffffffffffffffff1663234636248a8a8a8e8b6040518663ffffffff1660e01b815260040161090d959493929190611e4e565b600060405180830381600087803b15801561092757600080fd5b505af115801561093b573d6000803e3d6000fd5b505050506000308a8a8a8e8b4660405160200161095e9796959493929190611ea1565b6040516020818303038152906040528051906020012090508473ffffffffffffffffffffffffffffffffffffffff16634289fbb3858d8b86868c6040518763ffffffff1660e01b81526004016109b8959493929190611df4565b6000604051808303818588803b1580156109d157600080fd5b505af11580156109e5573d6000803e3d6000fd5b5050505050809250505098975050505050505050565b6000808373ffffffffffffffffffffffffffffffffffffffff1663dfa2dbaf6040518163ffffffff1660e01b815260040160206040518083038186803b158015610a4457600080fd5b505afa158015610a58573d6000803e3d6000fd5b505050506040513d601f19601f82011682018060405250810190610a7c9190611b4c565b90508073ffffffffffffffffffffffffffffffffffffffff1663de790c7e8a8a8d8a6040518563ffffffff1660e01b8152600401610abd9493929190611f22565b600060405180830381600087803b158015610ad757600080fd5b505af1158015610aeb573d6000803e3d6000fd5b505050506000308a8a8d8a46604051602001610b0c96959493929190611f67565b6040516020818303038152906040528051906020012090508473ffffffffffffffffffffffffffffffffffffffff16634289fbb3858d8b86868c6040518763ffffffff1660e01b8152600401610b66959493929190611df4565b6000604051808303818588803b158015610b7f57600080fd5b505af1158015610b93573d6000803e3d6000fd5b5050505050809250505098975050505050505050565b6060610bb88484600085610ce2565b90509392505050565b6000818473ffffffffffffffffffffffffffffffffffffffff1663dd62ed3e30866040518363ffffffff1660e01b8152600401610bff929190611fd7565b60206040518083038186803b158015610c1757600080fd5b505afa158015610c2b573d6000803e3d6000fd5b505050506040513d601f19601f82011682018060405250810190610c4f9190612000565b610c59919061202d565b9050610cdc8463095ea7b360e01b8584604051602401610c7a929190611a38565b604051602081830303815290604052907bffffffffffffffffffffffffffffffffffffffffffffffffffffffff19166020820180517bffffffffffffffffffffffffffffffffffffffffffffffffffffffff8381831617835250505050610577565b50505050565b606082471015610d27576040517f08c379a0000000000000000000000000000000000000000000000000000000008152600401610d1e906120f5565b60405180910390fd5b610d3085610df6565b610d6f576040517f08c379a0000000000000000000000000000000000000000000000000000000008152600401610d6690612161565b60405180910390fd5b6000808673ffffffffffffffffffffffffffffffffffffffff168587604051610d9891906121bd565b60006040518083038185875af1925050503d8060008114610dd5576040519150601f19603f3d011682016040523d82523d6000602084013e610dda565b606091505b5091509150610dea828286610e09565b92505050949350505050565b600080823b905060008111915050919050565b60608315610e1957829050610e69565b600083511115610e2c5782518084602001fd5b816040517f08c379a0000000000000000000000000000000000000000000000000000000008152600401610e609190612218565b60405180910390fd5b9392505050565b6000604051905090565b600080fd5b600080fd5b600073ffffffffffffffffffffffffffffffffffffffff82169050919050565b6000610eaf82610e84565b9050919050565b610ebf81610ea4565b8114610eca57600080fd5b50565b600081359050610edc81610eb6565b92915050565b6000819050919050565b610ef581610ee2565b8114610f0057600080fd5b50565b600081359050610f1281610eec565b92915050565b600067ffffffffffffffff82169050919050565b610f3581610f18565b8114610f4057600080fd5b50565b600081359050610f5281610f2c565b92915050565b600063ffffffff82169050919050565b610f7181610f58565b8114610f7c57600080fd5b50565b600081359050610f8e81610f68565b92915050565b60048110610fa157600080fd5b50565b600081359050610fb381610f94565b92915050565b600080fd5b600080fd5b600080fd5b60008083601f840112610fde57610fdd610fb9565b5b8235905067ffffffffffffffff811115610ffb57610ffa610fbe565b5b60208301915083602082028301111561101757611016610fc3565b5b9250929050565b60008083601f84011261103457611033610fb9565b5b8235905067ffffffffffffffff81111561105157611050610fbe565b5b60208301915083602082028301111561106d5761106c610fc3565b5b9250929050565b6000806000806000806000806000806101008b8d03121561109857611097610e7a565b5b60006110a68d828e01610ecd565b9a505060206110b78d828e01610ecd565b99505060406110c88d828e01610f03565b98505060606110d98d828e01610f43565b97505060806110ea8d828e01610f7f565b96505060a06110fb8d828e01610fa4565b95505060c08b013567ffffffffffffffff81111561111c5761111b610e7f565b5b6111288d828e01610fc8565b945094505060e08b013567ffffffffffffffff81111561114b5761114a610e7f565b5b6111578d828e0161101e565b92509250509295989b9194979a5092959850565b600080fd5b6000601f19601f8301169050919050565b7f4e487b7100000000000000000000000000000000000000000000000000000000600052604160045260246000fd5b6111b982611170565b810181811067ffffffffffffffff821117156111d8576111d7611181565b5b80604052505050565b60006111eb610e70565b90506111f782826111b0565b919050565b600067ffffffffffffffff82111561121757611216611181565b5b61122082611170565b9050602081019050919050565b82818337600083830152505050565b600061124f61124a846111fc565b6111e1565b90508281526020810184848401111561126b5761126a61116b565b5b61127684828561122d565b509392505050565b600082601f83011261129357611292610fb9565b5b81356112a384826020860161123c565b91505092915050565b600080600080600060a086880312156112c8576112c7610e7a565b5b60006112d688828901610ecd565b95505060206112e788828901610ecd565b94505060406112f888828901610f03565b935050606061130988828901610f43565b925050608086013567ffffffffffffffff81111561132a57611329610e7f565b5b6113368882890161127e565b9150509295509295909350565b60008115159050919050565b61135881611343565b82525050565b6000602082019050611373600083018461134f565b92915050565b7f4e487b7100000000000000000000000000000000000000000000000000000000600052601160045260246000fd5b60006113b382610f18565b91506113be83610f18565b92508267ffffffffffffffff038211156113db576113da611379565b5b828201905092915050565b600081519050919050565b600082825260208201905092915050565b6000819050602082019050919050565b61141b81610ea4565b82525050565b600061142d8383611412565b60208301905092915050565b6000602082019050919050565b6000611451826113e6565b61145b81856113f1565b935061146683611402565b8060005b8381101561149757815161147e8882611421565b975061148983611439565b92505060018101905061146a565b5085935050505092915050565b600081519050919050565b600082825260208201905092915050565b6000819050602082019050919050565b6114d981610ee2565b82525050565b60006114eb83836114d0565b60208301905092915050565b6000602082019050919050565b600061150f826114a4565b61151981856114af565b9350611524836114c0565b8060005b8381101561155557815161153c88826114df565b9750611547836114f7565b925050600181019050611528565b5085935050505092915050565b6000604083016000830151848203600086015261157f8282611446565b915050602083015184820360208601526115998282611504565b9150508091505092915050565b600060208201905081810360008301526115c08184611562565b905092915050565b600082825260208201905092915050565b7f63616c6c6572206973206e6f74206d6573736167652062757300000000000000600082015250565b600061160f6019836115c8565b915061161a826115d9565b602082019050919050565b6000602082019050818103600083015261163e81611602565b9050919050565b600080fd5b600080fd5b600067ffffffffffffffff82111561166a57611669611181565b5b602082029050602081019050919050565b60008151905061168a81610eb6565b92915050565b60006116a361169e8461164f565b6111e1565b905080838252602082019050602084028301858111156116c6576116c5610fc3565b5b835b818110156116ef57806116db888261167b565b8452602084019350506020810190506116c8565b5050509392505050565b600082601f83011261170e5761170d610fb9565b5b815161171e848260208601611690565b91505092915050565b600067ffffffffffffffff82111561174257611741611181565b5b602082029050602081019050919050565b60008151905061176281610eec565b92915050565b600061177b61177684611727565b6111e1565b9050808382526020820190506020840283018581111561179e5761179d610fc3565b5b835b818110156117c757806117b38882611753565b8452602084019350506020810190506117a0565b5050509392505050565b600082601f8301126117e6576117e5610fb9565b5b81516117f6848260208601611768565b91505092915050565b60006040828403121561181557611814611645565b5b61181f60406111e1565b9050600082015167ffffffffffffffff81111561183f5761183e61164a565b5b61184b848285016116f9565b600083015250602082015167ffffffffffffffff81111561186f5761186e61164a565b5b61187b848285016117d1565b60208301525092915050565b60006020828403121561189d5761189c610e7a565b5b600082015167ffffffffffffffff8111156118bb576118ba610e7f565b5b6118c7848285016117ff565b91505092915050565b7f4e487b7100000000000000000000000000000000000000000000000000000000600052603260045260246000fd5b600061190a82610ee2565b91507fffffffffffffffffffffffffffffffffffffffffffffffffffffffffffffffff82141561193d5761193c611379565b5b600182019050919050565b61195181610ea4565b82525050565b61196081610ee2565b82525050565b600060608201905061197b6000830186611948565b6119886020830185611948565b6119956040830184611957565b949350505050565b7f4e487b7100000000000000000000000000000000000000000000000000000000600052602160045260246000fd5b7f6272696467652074797065206e6f7420737570706f7274656400000000000000600082015250565b6000611a026019836115c8565b9150611a0d826119cc565b602082019050919050565b60006020820190508181036000830152611a31816119f5565b9050919050565b6000604082019050611a4d6000830185611948565b611a5a6020830184611957565b9392505050565b611a6a81611343565b8114611a7557600080fd5b50565b600081519050611a8781611a61565b92915050565b600060208284031215611aa357611aa2610e7a565b5b6000611ab184828501611a78565b91505092915050565b7f5361666545524332303a204552433230206f7065726174696f6e20646964206e60008201527f6f74207375636365656400000000000000000000000000000000000000000000602082015250565b6000611b16602a836115c8565b9150611b2182611aba565b604082019050919050565b60006020820190508181036000830152611b4581611b09565b9050919050565b600060208284031215611b6257611b61610e7a565b5b6000611b708482850161167b565b91505092915050565b611b8281610f18565b82525050565b611b9181610f58565b82525050565b600060c082019050611bac6000830189611948565b611bb96020830188611948565b611bc66040830187611957565b611bd36060830186611b79565b611be06080830185611b79565b611bed60a0830184611b88565b979650505050505050565b60008160601b9050919050565b6000611c1082611bf8565b9050919050565b6000611c2282611c05565b9050919050565b611c3a611c3582610ea4565b611c17565b82525050565b6000819050919050565b611c5b611c5682610ee2565b611c40565b82525050565b60008160c01b9050919050565b6000611c7982611c61565b9050919050565b611c91611c8c82610f18565b611c6e565b82525050565b6000611ca3828a611c29565b601482019150611cb38289611c29565b601482019150611cc38288611c29565b601482019150611cd38287611c4a565b602082019150611ce38286611c80565b600882019150611cf38285611c80565b600882019150611d038284611c80565b60088201915081905098975050505050505050565b6000819050919050565b6000611d3d611d38611d3384610f18565b611d18565b610ee2565b9050919050565b611d4d81611d22565b82525050565b6000819050919050565b611d6681611d53565b82525050565b600081519050919050565b600082825260208201905092915050565b60005b83811015611da6578082015181840152602081019050611d8b565b83811115611db5576000848401525b50505050565b6000611dc682611d6c565b611dd08185611d77565b9350611de0818560208601611d88565b611de981611170565b840191505092915050565b600060a082019050611e096000830188611948565b611e166020830187611d44565b611e236040830186611948565b611e306060830185611d5d565b8181036080830152611e428184611dbb565b90509695505050505050565b600060a082019050611e636000830188611948565b611e706020830187611957565b611e7d6040830186611b79565b611e8a6060830185611948565b611e976080830184611b79565b9695505050505050565b6000611ead828a611c29565b601482019150611ebd8289611c29565b601482019150611ecd8288611c4a565b602082019150611edd8287611c80565b600882019150611eed8286611c29565b601482019150611efd8285611c80565b600882019150611f0d8284611c80565b60088201915081905098975050505050505050565b6000608082019050611f376000830187611948565b611f446020830186611957565b611f516040830185611948565b611f5e6060830184611b79565b95945050505050565b6000611f738289611c29565b601482019150611f838288611c29565b601482019150611f938287611c4a565b602082019150611fa38286611c29565b601482019150611fb38285611c80565b600882019150611fc38284611c80565b600882019150819050979650505050505050565b6000604082019050611fec6000830185611948565b611ff96020830184611948565b9392505050565b60006020828403121561201657612015610e7a565b5b600061202484828501611753565b91505092915050565b600061203882610ee2565b915061204383610ee2565b9250827fffffffffffffffffffffffffffffffffffffffffffffffffffffffffffffffff0382111561207857612077611379565b5b828201905092915050565b7f416464726573733a20696e73756666696369656e742062616c616e636520666f60008201527f722063616c6c0000000000000000000000000000000000000000000000000000602082015250565b60006120df6026836115c8565b91506120ea82612083565b604082019050919050565b6000602082019050818103600083015261210e816120d2565b9050919050565b7f416464726573733a2063616c6c20746f206e6f6e2d636f6e7472616374000000600082015250565b600061214b601d836115c8565b915061215682612115565b602082019050919050565b6000602082019050818103600083015261217a8161213e565b9050919050565b600081905092915050565b600061219782611d6c565b6121a18185612181565b93506121b1818560208601611d88565b80840191505092915050565b60006121c9828461218c565b915081905092915050565b600081519050919050565b60006121ea826121d4565b6121f481856115c8565b9350612204818560208601611d88565b61220d81611170565b840191505092915050565b6000602082019050818103600083015261223281846121df565b90509291505056fea26469706673582212204bf21f00d0f6ddab4adbeb60370ff77d731b1cde9fe4b4be5af1ab0029c1587964736f6c63430008090033",
  "linkReferences": {},
  "deployedLinkReferences": {}
}